:020000040800F2
:100000007806002089010008150700080B06000883
:10001000110700087D020008250900080000000003
:10002000000000000000000000000000AD07000814
:10003000810200080000000089070008C1080008CC
:10004000A3010008A3010008A3010008A301000800
:10005000A3010008A301000885020008A30100080D
:10006000A3010008C1020008DF020008A301000884
:10007000A3010008A3010008A3010008A3010008D0
:10008000A3010008A3010008A3010008A3010008C0
:10009000A3010008A3010008A3010008A3010008B0
:1000A000A3010008A3010008A3010008A3010008A0
:1000B000A3010008A3010008A3010008A301000890
:1000C000A3010008A3010008A3010008A301000880
:1000D000A3010008A3010008A3010008A301000870
:1000E000A3010008A3010008A301000800F002F822
:1000F00000F03AF80AA090E8000C82448344AAF188
:100100000107DA4501D100F02FF8AFF2090EBAE885
:100110000F0013F0010F18BFFB1A43F0010318473B
:10012000B8080000D8080000103A24BF78C878C189
:10013000FAD8520724BF30C830C144BF04680C60ED
:10014000704700000023002400250026103A28BF35
:1001500078C1FBD8520728BF30C148BF0B60704739
:100160001FB51FBD10B510BD00F031F81146FFF7E7
:10017000F7FF00F021FC00F04FF803B4FFF7F2FFA7
:1001800003BC00F057F800000948804709480047C1
:10019000FEE7FEE7FEE7FEE7FEE7FEE7FEE7FEE737
:1001A000FEE7FEE704480549054A064B7047000094
:1001B000C5080008ED00000878000020780600203F
:1001C000780200207802002070477047704775461B
:1001D00000F02CF8AE4605006946534620F00700B3
:1001E000854618B020B5FFF7DDFFBDE820404FF091
:1001F00000064FF000074FF000084FF0000B21F011
:100200000701AC46ACE8C009ACE8C009ACE8C009DD
:10021000ACE8C0098D46704710B50446AFF30080C6
:100220002046BDE81040FFF7A8BF00000048704717
:100230001800002001491820ABBEFEE7260002008E
:100240007047000008B50121082000F09FFA4FF424
:100250008070ADF8000010208DF8030003208DF8A9
:1002600002006946044800F02FF94FF480710248FB
:1002700000F0C7F908BD0000000C014000BFFEE718
:100280007047000010B5012000F03EF8A8B114201E
:1002900000F06CFB02E00A2000F068FB0121074837
:1002A00000F09DF90128F6D0012000F007FA0020A7
:1002B00000F004FA012000F021F810BD0008014010
:1002C00010B5082000F020F840B1142000F04EFBDB
:1002D000012000F0F3F9082000F010F810BD10B56F
:1002E000102000F011F840B1142000F03FFB002076
:1002F00000F0E4F9102000F001F810BD0149086099
:100300007047000014040140014600200022074B02
:100310001B6803EA0102054B14331B680B4013B141
:100320000AB1012000E000207047000000040140F5
:10033000002123498279002A3AD00A4612680368CC
:100340009A430B461A600A1D126803689A430B1DF4
:100350001A60027911440A6803681A430A60184A4D
:100360000832126803689A43154B08331A601A1D45
:10037000126803689A43124B0C331A604279102AB0
:100380000ED11A1F126803681A430D4B08331A6006
:100390001A1D126803681A43094B0C331A600DE0EA
:1003A0000749427911440A6803681A430A6005E064
:1003B000027911440A6803689A430A607047000092
:1003C000000401400EB500F023F90121084600F0B9
:1003D000DDF90021084600F057F8012001900020C7
:1003E0008DF8080008208DF8090001A8FFF7A0FF8C
:1003F0000321042000F048F80820019000208DF827
:1004000008000C208DF8090001A8FFF791FF0421D6
:10041000084600F039F81020019000208DF80800FF
:100420000C208DF8090001A8FFF782FF06208DF847
:10043000000002208DF8010003208DF80200012049
:100440008DF80300684600F067F909208DF8000078
:1004500003208DF8010002208DF8020001208DF8A4
:100460000300684600F058F90A208DF800000220C9
:100470008DF8010000208DF8020001208DF80300A6
:10048000684600F049F90EBD30B500228B071C0FFD
:100490000F2303FA04F20B4B8C1053F824309343D0
:1004A000084C8D1044F8253023468C1053F8243026
:1004B0008C07240F00FA04F42343024C8D1044F8F7
:1004C000253030BD080001402DE9F04102460025ED
:1004D0000026002000230024002791F803C00CF020
:1004E0000F0591F803C00CF0100CBCF1000F03D005
:1004F00091F802C04CEA050591F800C0BCF1000F6C
:1005000031D0146800202BE04FF0010C0CFA00F3FE
:10051000B1F800C00CEA03069E4220D183004FF0E0
:100520000F0C0CFA03F7BC4305FA03FC4CEA040475
:1005300091F803C0BCF1280F06D14FF0010C0CFA62
:1005400000FCC2F814C00AE091F803C0BCF1480FE7
:1005500005D14FF0010C0CFA00FCC2F810C0401C91
:100560000828D1D31460B1F800C0BCF1FF0F34DD0E
:10057000546800202EE000F1080C4FF0010808FA42
:100580000CF3B1F800C00CEA03069E4221D18300AF
:100590004FF00F0C0CFA03F7BC4305FA03FC4CEACE
:1005A000040491F803C0BCF1280F05D100F1080C38
:1005B00008FA0CF8C2F8148091F803C0BCF1480F97
:1005C00007D100F1080C4FF0010808FA0CF8C2F846
:1005D0001080401C0828CED35460BDE8F08102464C
:1005E000002093680B400BB1012000E00020704711
:1005F00002460020D3680B400BB1012000E0002030
:100600007047416170470161704700BFFEE700001D
:1006100008B50121442000F0B9F80820ADF8000029
:1006200048208DF8030003208DF8020069460C482D
:10063000FFF74AFF1020ADF8000069460848FFF7B1
:1006400043FF0120ADF8000028208DF803000320AF
:100650008DF8020069460348FFF736FF08BD000029
:10066000001801400008014008B50121082000F0F1
:100670008DF80121402000F089F810208DF803004A
:100680002020ADF8000003208DF8020069460948DB
:10069000FFF71AFF2020ADF8000069460648FFF773
:1006A00013FF20210348FFF7AEFF20210248FFF788
:1006B000AAFF08BD000C01400018014010B5044617
:1006C0007CB920211048FFF793FF012804D1202195
:1006D0000D48FFF796FF15E020210B48FFF793FF29
:1006E00010E0012C0ED120210848FFF781FF0128DE
:1006F00004D120210548FFF784FF03E020210348AF
:10070000FFF781FF10BD0000000C01400018014000
:1007100000BFFEE77047000070B5002100230F22E4
:10072000C47804B3154C246804F4E064C4F5E064B0
:10073000210AC1F10403CA40447804FA03F1847821
:100740001440214309010E4C0678A155047804F0A9
:100750001F050124AC4005786D11AD0005F1E025C1
:10076000C5F8004109E0047804F01F050124AC40FD
:10077000044D0678761145F8264070BD0CED00E07A
:1007800000E400E080E100E07047000029B1064A83
:1007900092690243044B9A6104E0034A92698243DE
:1007A000014B9A617047000000100240704710B57D
:1007B00000F002F810BD00000CB500200190009080
:1007C0003348006840F480303149086000BF304849
:1007D000006800F4003000900198401C01900098DF
:1007E00018B90198B0F5A06FF1D12948006800F45C
:1007F000003010B10120009001E00020009000982E
:10080000012843D12348006840F0100021490860C6
:100810000846006820F0030008600846006840F0C1
:10082000020008601A484068194948600846406854
:1008300048600846406840F4806048600846406868
:1008400020F47C1048600846406840F4E810486096
:100850000846006840F08070086000BF0C480068DF
:1008600000F000700028F9D00948406820F003002B
:10087000074948600846406840F00200486000BFF1
:100880000348406800F00C000828F9D10CBD0000B6
:100890000010024000200240042808D14FF0E0215F
:1008A000096941F004014FF0E022116107E04FF0C7
:1008B000E021096921F004014FF0E0221161704745
:1008C0007047000010B51348006840F0010011495E
:1008D000086008464068104908400E4948600846CC
:1008E00000680E4908400B4908600846006820F47B
:1008F000802008600846406820F4FE0048604FF4FD
:100900001F008860FFF753FF4FF000600449086044
:1009100010BD0000001002400000FFF8FFFFF6FECF
:1009200008ED00E000BFFEE710B56FF00400FFF730
:10093000B3FF0A4800680A49B0FBF1F009490870A2
:100940000846007800EB4001C1EBC0104FF6FF7184
:1009500001EAC0000449088010BD0000000000202A
:1009600000127A0014000020160000200146114AEF
:1009700012884A434FF0E0235A6100229A611A46D6
:10098000126942F001021A6100BF4FF0E0221069C3
:1009900000F001021AB100F48032002AF5D04FF0C5
:1009A000E022126922F001024FF0E0231A610022D6
:1009B0009A61704716000020FFF72AFEFFF754FEE9
:1009C000FFF7B2FFFFF73EFCFFF7FCFC02E06420FC
:1009D000FFF7CCFFFBE70000F8090008000000204B
:1009E0001800000028010008100A00081800002064
:1009F000600600004401000800A24A040000000054
:100A000000000000010203040607080900000000BE
:04000005080000ED02
:00000001FF
