:020000040800F2
:100000007806002089010008D9040008C50300080B
:10001000D50400087D0200087506000800000000F5
:10002000000000000000000000000000FD040008C7
:100030008102000800000000DB040008110600082F
:10004000A3010008A3010008A3010008A301000800
:10005000A3010008A3010008A3010008A3010008F0
:10006000A3010008A3010008A3010008A3010008E0
:10007000A3010008A3010008A3010008A3010008D0
:10008000A3010008A3010008A3010008A3010008C0
:10009000A3010008A3010008A3010008A3010008B0
:1000A000A3010008A3010008A3010008A3010008A0
:1000B000A3010008A3010008A3010008A301000890
:1000C000A3010008A3010008A3010008A301000880
:1000D000A3010008A3010008A3010008A301000870
:1000E000A3010008A3010008A301000800F002F822
:1000F00000F03AF80AA090E8000C82448344AAF188
:100100000107DA4501D100F02FF8AFF2090EBAE885
:100110000F0013F0010F18BFFB1A43F0010318473B
:100120007C0600009C060000103A24BF78C878C105
:10013000FAD8520724BF30C830C144BF04680C60ED
:10014000704700000023002400250026103A28BF35
:1001500078C1FBD8520728BF30C148BF0B60704739
:100160001FB51FBD10B510BD00F031F81146FFF7E7
:10017000F7FF00F0C9FA00F04FF803B4FFF7F2FF01
:1001800003BC00F057F800000948804709480047C1
:10019000FEE7FEE7FEE7FEE7FEE7FEE7FEE7FEE737
:1001A000FEE7FEE704480549054A064B7047000094
:1001B00015060008ED0000087800002078060020F1
:1001C000780200207802002070477047704775461B
:1001D00000F02CF8AE4605006946534620F00700B3
:1001E000854618B020B5FFF7DDFFBDE820404FF091
:1001F00000064FF000074FF000084FF0000B21F011
:100200000701AC46ACE8C009ACE8C009ACE8C009DD
:10021000ACE8C0098D46704710B50446AFF30080C6
:100220002046BDE81040FFF7A8BF00000048704717
:100230001800002001491820ABBEFEE7260002008E
:100240007047000008B50121082000F047F94FF47D
:100250008070ADF8000010208DF8030003208DF8A9
:1002600002006946044800F00CF84FF4807102481F
:1002700000F0A4F808BD0000000C014000BFFEE73C
:1002800070472DE9F041024600250026002000239A
:100290000024002791F803C00CF00F0591F803C06B
:1002A0000CF0100CBCF1000F03D091F802C04CEA26
:1002B000050591F800C0BCF1000F31D01468002092
:1002C0002BE04FF0010C0CFA00F3B1F800C00CEA7F
:1002D00003069E4220D183004FF00F0C0CFA03F767
:1002E000BC4305FA03FC4CEA040491F803C0BCF1DA
:1002F000280F06D14FF0010C0CFA00FCC2F814C014
:100300000AE091F803C0BCF1480F05D14FF0010C91
:100310000CFA00FCC2F810C0401C0828D1D31460AD
:10032000B1F800C0BCF1FF0F34DD546800202EE0AE
:1003300000F1080C4FF0010808FA0CF3B1F800C006
:100340000CEA03069E4221D183004FF00F0C0CFAF9
:1003500003F7BC4305FA03FC4CEA040491F803C01C
:10036000BCF1280F05D100F1080C08FA0CF8C2F80E
:10037000148091F803C0BCF1480F07D100F1080CBC
:100380004FF0010808FA0CF8C2F81080401C082849
:10039000CED35460BDE8F0810246002093680B4044
:1003A0000BB1012000E00020704702460020D36816
:1003B0000B400BB1012000E0002070474161704705
:1003C0000161704700BFFEE708B50121402000F041
:1003D00085F80820ADF8000048208DF803000320C0
:1003E0008DF8020069460548FFF74BFF1020ADF875
:1003F000000069460148FFF744FF08BD00180140AE
:1004000070B505460C4621460748FFF7C5FF012891
:1004100004D1142000F052F9012070BD142000F026
:100420004DF90020F9E700000018014008B501214E
:10043000082000F053F80121402000F04FF8102070
:100440008DF803002020ADF8000003208DF8020095
:1004500069460948FFF715FF2020ADF800006946FE
:100460000648FFF70EFF20210348FFF7A9FF2021D0
:100470000248FFF7A5FF08BD000C0140001801402D
:1004800010B504467CB920211048FFF78EFF0128E3
:1004900004D120210D48FFF791FF15E020210B48E2
:1004A000FFF78EFF10E0012C0ED120210848FFF746
:1004B0007CFF012804D120210548FFF77FFF03E0DE
:1004C00020210348FFF77CFF10BD0000000C014015
:1004D0000018014000BFFEE77047704729B1064A87
:1004E00092690243044B9A6104E0034A9269824391
:1004F000014B9A617047000000100240704710B530
:1005000000F002F810BD00000CB500200190009032
:100510003348006840F480303149086000BF3048FB
:10052000006800F4003000900198401C0190009891
:1005300018B90198B0F5A06FF1D12948006800F40E
:10054000003010B10120009001E0002000900098E0
:10055000012843D12348006840F010002149086079
:100560000846006820F0030008600846006840F074
:10057000020008601A484068194948600846406807
:1005800048600846406840F480604860084640681B
:1005900020F47C1048600846406840F4E810486049
:1005A0000846006840F08070086000BF0C48006892
:1005B00000F000700028F9D00948406820F00300DE
:1005C000074948600846406840F00200486000BFA4
:1005D0000348406800F00C000828F9D10CBD000069
:1005E0000010024000200240042808D14FF0E02112
:1005F000096941F004014FF0E022116107E04FF07A
:10060000E021096921F004014FF0E02211617047F7
:100610007047000010B51348006840F00100114910
:10062000086008464068104908400E49486008467E
:1006300000680E4908400B4908600846006820F42D
:10064000802008600846406820F4FE0048604FF4AF
:100650001F008860FFF753FF4FF0006004490860F7
:1006600010BD0000001002400000FFF8FFFFF6FE82
:1006700008ED00E000BFFEE710B56FF00400FFF7E3
:10068000B3FF0A4800680A49B0FBF1F00949087055
:100690000846007800EB4001C1EBC0104FF6FF7137
:1006A00001EAC0000449088010BD000000000020DD
:1006B00000127A0014000020160000200146114AA2
:1006C00012884A434FF0E0235A6100229A611A4689
:1006D000126942F001021A6100BF4FF0E022106976
:1006E00000F001021AB100F48032002AF5D04FF078
:1006F000E022126922F001024FF0E0231A61002289
:100700009A61704716000020FFF790FEFFF7B4FFD4
:10071000FFF75AFEFFF796FD3BE010211D48FFF75B
:100720006FFE012817D11420FFF7C8FF02E00A204E
:10073000FFF7C4FF10211748FFF762FE0128F6D02B
:100740004FF480711448FFF73BFE0020FFF798FE3E
:100750001420FFF7B3FF08210E48FFF751FE0128D0
:1007600017D11420FFF7AAFF02E00A20FFF7A6FF27
:1007700008210848FFF744FE0128F6D04FF48071A5
:100780000548FFF71BFE0120FFF77AFE1420FFF754
:1007900095FFC2E700180140000C0140BC070008AB
:1007A000000000201800000028010008D4070008FD
:1007B00018000020600600004401000800A24A045E
:1007C0000000000000000000010203040607080901
:0407D0000000000025
:04000005080000ED02
:00000001FF
